{
  "address": "0x5FC8d32690cc91D4c39d9d3abcBD16989F875707",
  "abi": [
    {
      "inputs": [
        {
          "internalType": "uint256",
          "name": "deployMentTime",
          "type": "uint256"
        },
        {
          "internalType": "address",
          "name": "dataFeedAddress",
          "type": "address"
        }
      ],
      "stateMutability": "nonpayable",
      "type": "constructor"
    },
    {
      "anonymous": false,
      "inputs": [
        {
          "indexed": false,
          "internalType": "address",
          "name": "",
          "type": "address"
        },
        {
          "indexed": false,
          "internalType": "uint256",
          "name": "",
          "type": "uint256"
        }
      ],
      "name": "DrawFund",
      "type": "event"
    },
    {
      "anonymous": false,
      "inputs": [
        {
          "indexed": false,
          "internalType": "address",
          "name": "",
          "type": "address"
        },
        {
          "indexed": false,
          "internalType": "uint256",
          "name": "",
          "type": "uint256"
        }
      ],
      "name": "Refund",
      "type": "event"
    },
    {
      "inputs": [],
      "name": "dataFeed",
      "outputs": [
        {
          "internalType": "contract AggregatorV3Interface",
          "name": "",
          "type": "address"
        }
      ],
      "stateMutability": "view",
      "type": "function"
    },
    {
      "inputs": [],
      "name": "drawFund",
      "outputs": [],
      "stateMutability": "nonpayable",
      "type": "function"
    },
    {
      "inputs": [],
      "name": "fund",
      "outputs": [],
      "stateMutability": "payable",
      "type": "function"
    },
    {
      "inputs": [
        {
          "internalType": "address",
          "name": "",
          "type": "address"
        }
      ],
      "name": "fundAmount",
      "outputs": [
        {
          "internalType": "uint256",
          "name": "",
          "type": "uint256"
        }
      ],
      "stateMutability": "view",
      "type": "function"
    },
    {
      "inputs": [],
      "name": "owner",
      "outputs": [
        {
          "internalType": "address",
          "name": "",
          "type": "address"
        }
      ],
      "stateMutability": "view",
      "type": "function"
    },
    {
      "inputs": [],
      "name": "refund",
      "outputs": [],
      "stateMutability": "nonpayable",
      "type": "function"
    },
    {
      "inputs": [
        {
          "internalType": "address",
          "name": "_owner",
          "type": "address"
        }
      ],
      "name": "transferContractOwner",
      "outputs": [],
      "stateMutability": "nonpayable",
      "type": "function"
    }
  ],
  "transactionHash": "0xf2531ce8912c2ad2d6c02b7b0f2582d9fea8e215e578980d218f648381a748cb",
  "args": [
    180,
    "0xDc64a140Aa3E981100a9becA4E685f962f0cF6C9"
  ],
  "numDeployments": 1,
  "solcInputHash": "44c3ace5e4d5ef0b9b14815ec83eacf3",
  "bytecode": "0x608060405234801561001057600080fd5b5060405161140d38038061140d8339818101604052810190610032919061016e565b806000806101000a81548173ffffffffffffffffffffffffffffffffffffffff021916908373ffffffffffffffffffffffffffffffffffffffff16021790555033600160006101000a81548173ffffffffffffffffffffffffffffffffffffffff021916908373ffffffffffffffffffffffffffffffffffffffff16021790555042600381905550816003546100c891906101dd565b6004819055505050610211565b600080fd5b6000819050919050565b6100ed816100da565b81146100f857600080fd5b50565b60008151905061010a816100e4565b92915050565b600073ffffffffffffffffffffffffffffffffffffffff82169050919050565b600061013b82610110565b9050919050565b61014b81610130565b811461015657600080fd5b50565b60008151905061016881610142565b92915050565b60008060408385031215610185576101846100d5565b5b6000610193858286016100fb565b92505060206101a485828601610159565b9150509250929050565b7f4e487b7100000000000000000000000000000000000000000000000000000000600052601160045260246000fd5b60006101e8826100da565b91506101f3836100da565b925082820190508082111561020b5761020a6101ae565b5b92915050565b6111ed806102206000396000f3fe6080604052600436106100705760003560e01c80639e42ff901161004e5780639e42ff90146100ce578063b60d4288146100f9578063b82ffdf914610103578063e7b59bf31461014057610070565b8063590e1ae314610075578063749141bc1461008c5780638da5cb5b146100a3575b600080fd5b34801561008157600080fd5b5061008a610169565b005b34801561009857600080fd5b506100a16103ed565b005b3480156100af57600080fd5b506100b8610643565b6040516100c591906109e8565b60405180910390f35b3480156100da57600080fd5b506100e3610669565b6040516100f09190610a62565b60405180910390f35b61010161068d565b005b34801561010f57600080fd5b5061012a60048036038101906101259190610aae565b6107e5565b6040516101379190610af4565b60405180910390f35b34801561014c57600080fd5b5061016760048036038101906101629190610aae565b6107fd565b005b6004544210156101ae576040517f08c379a00000000000000000000000000000000000000000000000000000000081526004016101a590610b6c565b60405180910390fd5b60026101b9476108d1565b106101f9576040517f08c379a00000000000000000000000000000000000000000000000000000000081526004016101f090610bd8565b60405180910390fd5b6000600260003373ffffffffffffffffffffffffffffffffffffffff1673ffffffffffffffffffffffffffffffffffffffff168152602001908152602001600020540361027b576040517f08c379a000000000000000000000000000000000000000000000000000000000815260040161027290610c44565b60405180910390fd5b6000600260003373ffffffffffffffffffffffffffffffffffffffff1673ffffffffffffffffffffffffffffffffffffffff1681526020019081526020016000205490506000600260003373ffffffffffffffffffffffffffffffffffffffff1673ffffffffffffffffffffffffffffffffffffffff1681526020019081526020016000208190555060003373ffffffffffffffffffffffffffffffffffffffff168260405161032a90610c95565b60006040518083038185875af1925050503d8060008114610367576040519150601f19603f3d011682016040523d82523d6000602084013e61036c565b606091505b50509050806103b0576040517f08c379a00000000000000000000000000000000000000000000000000000000081526004016103a790610cf6565b60405180910390fd5b7fbb28353e4598c3b9199101a66e0989549b659a59a54d2c27fbb183f1932c8e6d33836040516103e1929190610d16565b60405180910390a15050565b600160009054906101000a900473ffffffffffffffffffffffffffffffffffffffff1673ffffffffffffffffffffffffffffffffffffffff163373ffffffffffffffffffffffffffffffffffffffff161461047d576040517f08c379a000000000000000000000000000000000000000000000000000000000815260040161047490610d8b565b60405180910390fd5b6004544210156104c2576040517f08c379a00000000000000000000000000000000000000000000000000000000081526004016104b990610b6c565b60405180910390fd5b60026104cd476108d1565b101561050e576040517f08c379a000000000000000000000000000000000000000000000000000000000815260040161050590610df7565b60405180910390fd5b600047905060003373ffffffffffffffffffffffffffffffffffffffff168260405161053990610c95565b60006040518083038185875af1925050503d8060008114610576576040519150601f19603f3d011682016040523d82523d6000602084013e61057b565b606091505b505080915050806105c1576040517f08c379a00000000000000000000000000000000000000000000000000000000081526004016105b890610e63565b60405180910390fd5b6000600260003373ffffffffffffffffffffffffffffffffffffffff1673ffffffffffffffffffffffffffffffffffffffff168152602001908152602001600020819055507fa39f3a9796681fd2d5d6b7ef91b987774a9317ef544b0ae10c8817cb4c8b809b3383604051610637929190610d16565b60405180910390a15050565b600160009054906101000a900473ffffffffffffffffffffffffffffffffffffffff1681565b60008054906101000a900473ffffffffffffffffffffffffffffffffffffffff1681565b60045442106106d1576040517f08c379a00000000000000000000000000000000000000000000000000000000081526004016106c890610ecf565b60405180910390fd5b6000600260003373ffffffffffffffffffffffffffffffffffffffff1673ffffffffffffffffffffffffffffffffffffffff1681526020019081526020016000205414610753576040517f08c379a000000000000000000000000000000000000000000000000000000000815260040161074a90610f3b565b60405180910390fd5b600161075e346108d1565b101561079f576040517f08c379a000000000000000000000000000000000000000000000000000000000815260040161079690610fa7565b60405180910390fd5b34600260003373ffffffffffffffffffffffffffffffffffffffff1673ffffffffffffffffffffffffffffffffffffffff16815260200190815260200160002081905550565b60026020528060005260406000206000915090505481565b600160009054906101000a900473ffffffffffffffffffffffffffffffffffffffff1673ffffffffffffffffffffffffffffffffffffffff163373ffffffffffffffffffffffffffffffffffffffff161461088d576040517f08c379a000000000000000000000000000000000000000000000000000000000815260040161088490610d8b565b60405180910390fd5b80600160006101000a81548173ffffffffffffffffffffffffffffffffffffffff021916908373ffffffffffffffffffffffffffffffffffffffff16021790555050565b6000806108dc610908565b90506a52b7d2dcc80cd2e400000083826108f69190610ff6565b6109009190611067565b915050919050565b60008060008054906101000a900473ffffffffffffffffffffffffffffffffffffffff1673ffffffffffffffffffffffffffffffffffffffff1663feaf968c6040518163ffffffff1660e01b815260040160a060405180830381865afa158015610976573d6000803e3d6000fd5b505050506040513d601f19601f8201168201806040525081019061099a919061113c565b5050509150508091505090565b600073ffffffffffffffffffffffffffffffffffffffff82169050919050565b60006109d2826109a7565b9050919050565b6109e2816109c7565b82525050565b60006020820190506109fd60008301846109d9565b92915050565b6000819050919050565b6000610a28610a23610a1e846109a7565b610a03565b6109a7565b9050919050565b6000610a3a82610a0d565b9050919050565b6000610a4c82610a2f565b9050919050565b610a5c81610a41565b82525050565b6000602082019050610a776000830184610a53565b92915050565b600080fd5b610a8b816109c7565b8114610a9657600080fd5b50565b600081359050610aa881610a82565b92915050565b600060208284031215610ac457610ac3610a7d565b5b6000610ad284828501610a99565b91505092915050565b6000819050919050565b610aee81610adb565b82525050565b6000602082019050610b096000830184610ae5565b92915050565b600082825260208201905092915050565b7f66756e6420697320657865637e00000000000000000000000000000000000000600082015250565b6000610b56600d83610b0f565b9150610b6182610b20565b602082019050919050565b60006020820190508181036000830152610b8581610b49565b9050919050565b7f74617267657420697320726561636865647e0000000000000000000000000000600082015250565b6000610bc2601283610b0f565b9150610bcd82610b8c565b602082019050919050565b60006020820190508181036000830152610bf181610bb5565b9050919050565b7f7468657265206973206e6f2066756e6420666f7220796f757e00000000000000600082015250565b6000610c2e601983610b0f565b9150610c3982610bf8565b602082019050919050565b60006020820190508181036000830152610c5d81610c21565b9050919050565b600081905092915050565b50565b6000610c7f600083610c64565b9150610c8a82610c6f565b600082019050919050565b6000610ca082610c72565b9150819050919050565b7f726566756e64207472616e73666572206661696c65647e000000000000000000600082015250565b6000610ce0601783610b0f565b9150610ceb82610caa565b602082019050919050565b60006020820190508181036000830152610d0f81610cd3565b9050919050565b6000604082019050610d2b60008301856109d9565b610d386020830184610ae5565b9392505050565b7f796f75206e6f7420697320636f6e7472616374206f776e65727e000000000000600082015250565b6000610d75601a83610b0f565b9150610d8082610d3f565b602082019050919050565b60006020820190508181036000830152610da481610d68565b9050919050565b7f746172676574206973206e6f7420726561636865647e00000000000000000000600082015250565b6000610de1601683610b0f565b9150610dec82610dab565b602082019050919050565b60006020820190508181036000830152610e1081610dd4565b9050919050565b7f64726177207472616e73666572206661696c65647e0000000000000000000000600082015250565b6000610e4d601583610b0f565b9150610e5882610e17565b602082019050919050565b60006020820190508181036000830152610e7c81610e40565b9050919050565b7f66756e6420697320636c6f73657e000000000000000000000000000000000000600082015250565b6000610eb9600e83610b0f565b9150610ec482610e83565b602082019050919050565b60006020820190508181036000830152610ee881610eac565b9050919050565b7f796f7520686176652066756e647e000000000000000000000000000000000000600082015250565b6000610f25600e83610b0f565b9150610f3082610eef565b602082019050919050565b60006020820190508181036000830152610f5481610f18565b9050919050565b7f73656e64206d6f7265206574687e000000000000000000000000000000000000600082015250565b6000610f91600e83610b0f565b9150610f9c82610f5b565b602082019050919050565b60006020820190508181036000830152610fc081610f84565b9050919050565b7f4e487b7100000000000000000000000000000000000000000000000000000000600052601160045260246000fd5b600061100182610adb565b915061100c83610adb565b925082820261101a81610adb565b9150828204841483151761103157611030610fc7565b5b5092915050565b7f4e487b7100000000000000000000000000000000000000000000000000000000600052601260045260246000fd5b600061107282610adb565b915061107d83610adb565b92508261108d5761108c611038565b5b828204905092915050565b600069ffffffffffffffffffff82169050919050565b6110b781611098565b81146110c257600080fd5b50565b6000815190506110d4816110ae565b92915050565b6000819050919050565b6110ed816110da565b81146110f857600080fd5b50565b60008151905061110a816110e4565b92915050565b61111981610adb565b811461112457600080fd5b50565b60008151905061113681611110565b92915050565b600080600080600060a0868803121561115857611157610a7d565b5b6000611166888289016110c5565b9550506020611177888289016110fb565b945050604061118888828901611127565b935050606061119988828901611127565b92505060806111aa888289016110c5565b915050929550929590935056fea26469706673582212209ce770fa17a4b4f5dc51d057cf00a5aa1db0bca06b0f47d24e57a58f7a80576264736f6c634300081c0033",
  "devdoc": {
    "kind": "dev",
    "methods": {},
    "version": 1
  },
  "userdoc": {
    "kind": "user",
    "methods": {},
    "version": 1
  },
  "storageLayout": {
    "storage": [
      {
        "astId": 64,
        "contract": "contracts/Fund.sol:Fund",
        "label": "dataFeed",
        "offset": 0,
        "slot": "0",
        "type": "t_contract(AggregatorV3Interface)45"
      },
      {
        "astId": 66,
        "contract": "contracts/Fund.sol:Fund",
        "label": "owner",
        "offset": 0,
        "slot": "1",
        "type": "t_address"
      },
      {
        "astId": 70,
        "contract": "contracts/Fund.sol:Fund",
        "label": "fundAmount",
        "offset": 0,
        "slot": "2",
        "type": "t_mapping(t_address,t_uint256)"
      },
      {
        "astId": 78,
        "contract": "contracts/Fund.sol:Fund",
        "label": "FUND_EXEC_TIMESTAMP",
        "offset": 0,
        "slot": "3",
        "type": "t_uint256"
      },
      {
        "astId": 80,
        "contract": "contracts/Fund.sol:Fund",
        "label": "FUND_CLOSE_TIMESTAMP",
        "offset": 0,
        "slot": "4",
        "type": "t_uint256"
      }
    ],
    "types": {
      "t_address": {
        "encoding": "inplace",
        "label": "address",
        "numberOfBytes": "20"
      },
      "t_contract(AggregatorV3Interface)45": {
        "encoding": "inplace",
        "label": "contract AggregatorV3Interface",
        "numberOfBytes": "20"
      },
      "t_mapping(t_address,t_uint256)": {
        "encoding": "mapping",
        "key": "t_address",
        "label": "mapping(address => uint256)",
        "numberOfBytes": "32",
        "value": "t_uint256"
      },
      "t_uint256": {
        "encoding": "inplace",
        "label": "uint256",
        "numberOfBytes": "32"
      }
    }
  }
}